:100000000C942A000C9434000C9434000C943400AA
:100010000C9434000C9434000C9434000C94340090
:100020000C9434000C9434000C9434000C94340080
:100030000C9434000C9434000C9434000C94340070
:100040000C9434000C9434000C9434000C94340060
:100050000C94340011241FBECFE5D8E0DEBFCDBF25
:100060000E94CE040C94E3040C940000DF93CF9321
:10007000CDB7DEB7EAE3F0E087E08083E7E3F0E0C6
:100080001082E4E3F0E01082E1E3F0E08FEF8083A0
:10009000EBE3F0E01082E8E3F0E01082E5E3F0E06B
:1000A0001082E2E3F0E01082CF91DF910895DF93B8
:1000B000CF93CDB7DEB72E970FB6F894DEBF0FBE45
:1000C000CDBF8A836B834C8381E089838A818430AE
:1000D00008F00CC18A81883008F008C18C81813019
:1000E00021F08C81882309F001C18A81282F30E01A
:1000F0003E872D878D859E858130910509F44FC0FF
:100100002D853E85223031052CF48D859E85009706
:1001100071F0EDC02D853E852230310509F477C0A0
:100120008D859E858330910509F4A9C0E0C08C813E
:10013000282F30E03C872B878B859C850097D1F05A
:100140002B853C852130310509F0D1C0AAE3B0E010
:10015000EAE3F0E08081482F8B81282F30E081E0B6
:1001600090E0022E02C0880F991F0A94E2F7842BB8
:100170008C93BDC0AAE3B0E0EAE3F0E08081482FB1
:100180008B81282F30E081E090E0022E02C0880FA2
:10019000991F0A94E2F7809584238C93A8C08C81E0
:1001A000282F30E03A87298789859A850097D1F0F2
:1001B00029853A852130310509F099C0A7E3B0E0DF
:1001C000E7E3F0E08081482F8B81282F30E081E049
:1001D00090E0022E02C0880F991F0A94E2F7842B48
:1001E0008C9385C0A7E3B0E0E7E3F0E08081482F7F
:1001F0008B81282F30E081E090E0022E02C0880F32
:10020000991F0A94E2F7809584238C9370C08C81A7
:10021000282F30E038872F838F8198850097D1F081
:100220002F8138852130310509F061C0A4E3B0E0A9
:10023000E4E3F0E08081482F8B81282F30E081E0DB
:1002400090E0022E02C0880F991F0A94E2F7842BD7
:100250008C934DC0A4E3B0E0E4E3F0E08081482F4C
:100260008B81282F30E081E090E0022E02C0880FC1
:10027000991F0A94E2F7809584238C9338C08C816F
:10028000282F30E03E832D838D819E810097C9F019
:100290002D813E812130310551F5A1E3B0E0E1E34C
:1002A000F0E08081482F8B81282F30E081E090E0C2
:1002B000022E02C0880F991F0A94E2F7842B8C93B8
:1002C00016C0A1E3B0E0E1E3F0E08081482F8B812C
:1002D000282F30E081E090E0022E02C0880F991FA5
:1002E0000A94E2F7809584238C9301C01982898156
:1002F0002E960FB6F894DEBF0FBECDBFCF91DF9123
:100300000895DF93CF93CDB7DEB72E970FB6F8944D
:10031000DEBF0FBECDBF8A836B834C8381E08983B0
:100320008B81883008F008C18A81282F30E03E8711
:100330002D878D859E858130910509F450C02D85CE
:100340003E85223031052CF48D859E85009771F015
:10035000F1C02D853E852230310509F479C08D85A7
:100360009E858330910509F4ACC0E4C08C81282FB0
:1003700030E03C872B878B859C850097C9F02B85C7
:100380003C852130310549F5ABE3B0E0EBE3F0E02B
:100390008081482F8B81282F30E081E090E0022E71
:1003A00002C0880F991F0A94E2F7842B8C93C5C072
:1003B000ABE3B0E0EBE3F0E08081482F8B81282FA6
:1003C00030E081E090E0022E02C0880F991F0A946D
:1003D000E2F7809584238C93B0C01982AEC08C81E3
:1003E000282F30E03A87298789859A850097C9F0B8
:1003F00029853A852130310549F5A8E3B0E0E8E3E5
:10040000F0E08081482F8B81282F30E081E090E060
:10041000022E02C0880F991F0A94E2F7842B8C9356
:100420008CC0A8E3B0E0E8E3F0E08081482F8B8146
:10043000282F30E081E090E0022E02C0880F991F43
:100440000A94E2F7809584238C9377C0198275C053
:100450008C81282F30E038872F838F8198850097F3
:10046000C9F02F8138852130310549F5A5E3B0E089
:10047000E5E3F0E08081482F8B81282F30E081E098
:1004800090E0022E02C0880F991F0A94E2F7842B95
:100490008C9353C0A5E3B0E0E5E3F0E08081482F02
:1004A0008B81282F30E081E090E0022E02C0880F7F
:1004B000991F0A94E2F7809584238C933EC0198299
:1004C0003CC08C81282F30E03E832D838D819E811E
:1004D0000097C9F02D813E812130310549F5A2E315
:1004E000B0E0E2E3F0E08081482F8B81282F30E0FC
:1004F00081E090E0022E02C0880F991F0A94E2F773
:10050000842B8C931AC0A2E3B0E0E2E3F0E0808198
:10051000482F8B81282F30E081E090E0022E02C02E
:10052000880F991F0A94E2F7809584238C9305C065
:10053000198203C0198201C0198289812E960FB6D3
:10054000F894DEBF0FBECDBFCF91DF910895DF934A
:10055000CF93CDB7DEB728970FB6F894DEBF0FBEA6
:10056000CDBF8B836C835E834D8381E08A838B81D7
:10057000843008F09FC08C81883008F09BC08D814A
:100580009E81009709F496C08B81282F30E0388730
:100590002F834F81588541305105A9F18F8198856E
:1005A0008230910534F42F8138852115310571F0A1
:1005B00082C04F8158854230510509F441C08F8176
:1005C00098858330910509F458C075C0E9E3F0E0DF
:1005D0008081282F30E08C81882F90E0A90102C013
:1005E000559547958A95E2F7CA018170898389817B
:1005F000882321F4ED81FE8110825DC0ED81FE81B2
:1006000081E0808358C0E6E3F0E08081282F30E06D
:100610008C81882F90E0A90102C0559547958A9555
:10062000E2F7CA01817089838981882321F4ED81F1
:10063000FE81108240C0ED81FE8181E080833BC05D
:10064000E3E3F0E08081282F30E08C81882F90E078
:10065000A90102C0559547958A95E2F7CA018170B4
:1006600089838981882321F4ED81FE81108223C052
:10067000ED81FE8181E080831EC0E0E3F0E08081B7
:10068000282F30E08C81882F90E0A90102C0559579
:1006900047958A95E2F7CA01817089838981882309
:1006A00021F4ED81FE81108206C0ED81FE8181E0A2
:1006B000808301C01A828A8128960FB6F894DEBF23
:1006C0000FBECDBFCF91DF910895DF93CF93CDB70C
:1006D000DEB72D970FB6F894DEBF0FBECDBF8A836D
:1006E0006B8381E089838B81813021F08B8188232A
:1006F00009F07FC08A81282F30E03D872C878C85C8
:100700009D858130910571F12C853D852230310523
:100710002CF48C859D85009769F069C02C853D85FA
:1007200022303105B1F18C859D858330910509F426
:1007300047C05DC08B81282F30E03B872A878A85A0
:100740009B85009759F02A853B852130310509F0BA
:1007500051C0EAE3F0E08FEF80834CC0EAE3F0E0C1
:10076000108248C08B81282F30E039872887888500
:100770009985009751F02885398521303105D1F5CB
:10078000E7E3F0E08FEF808335C0E7E3F0E010822D
:1007900031C08B81282F30E03F832E838E819F8153
:1007A000009751F02E813F812130310519F5E4E3A6
:1007B000F0E08FEF80831EC0E4E3F0E010821AC007
:1007C0008B81282F30E03D832C838C819D81009785
:1007D00051F02C813D812130310561F4E1E3F0E0FD
:1007E0008FEF808307C0E1E3F0E0108203C019823D
:1007F00001C0198289812D960FB6F894DEBF0FBE15
:10080000CDBFCF91DF910895DF93CF9300D000D07B
:100810000F92CDB7DEB78A836B8381E089838A81AB
:10082000282F30E03D832C838C819D818130910580
:10083000D1F02C813D81223031052CF48C819D81B9
:10084000009761F01FC02C813D812230310581F07D
:100850008C819D818330910581F014C0EBE3F0E041
:100860008B81808310C0E8E3F0E08B8180830BC034
:10087000E5E3F0E08B81808306C0E2E3F0E08B816A
:10088000808301C0198289810F900F900F900F9083
:100890000F90CF91DF910895DF93CF9300D000D0D8
:1008A00000D0CDB7DEB78A837C836B8381E08983F8
:1008B0008B819C810097E9F18A81282F30E03E836B
:1008C0002D838D819E8181309105E1F02D813E81C6
:1008D000223031052CF48D819E81009761F027C074
:1008E0002D813E8122303105A1F08D819E818330A2
:1008F0009105B1F01CC0E9E3F0E08081EB81FC815F
:10090000808318C0E6E3F0E08081EB81FC81808386
:1009100011C0E3E3F0E08081EB81FC8180830AC0B9
:10092000E0E3F0E08081EB81FC81808303C01982E9
:1009300001C01982898126960FB6F894DEBF0FBEDA
:10094000CDBFCF91DF910895DF93CF9300D000D03A
:10095000CDB7DEB71C821B8214C01A82198206C072
:10096000000089819A8101969A83898389819A817D
:1009700021E0843F9207A4F38B819C8101969C83A4
:100980008B838B819C8121E0843F920734F30F900D
:100990000F900F900F90CF91DF910895DF93CF9339
:1009A000CDB7DEB70E94360080E060E041E00E94F3
:1009B00081010E94A40481E061E040E00E94810185
:0A09C0000E94A404F1CFF894FFCFC9
:00000001FF
